:020000040800F2
:1000000000000220F54C0008610600086F06000899
:10001000750600087B060008810600080000000045
:10002000000000000000000000000000B1360008E1
:10003000870600080000000001390008693900083F
:10004000454D0008454D0008454D0008454D000848
:10005000454D0008454D0008454D0008454D000838
:10006000454D0008454D0008454D0008454D000828
:10007000454D0008454D0008454D0008454D000818
:10008000454D0008454D0008454D0008454D000808
:100090009D080008454D0008454D0008454D0008E5
:1000A000454D0008454D0008454D0008454D0008E8
:1000B00079080008454D0008454D0008454D0008E9
:1000C000454D0008454D0008454D0008454D0008C8
:1000D000454D000829080008E5070008454D0008BF
:1000E000454D0008454D0008454D0008454D0008A8
:1000F000454D0008454D0008454D0008454D000898
:10010000454D0008454D0008454D0008454D000887
:10011000454D0008454D0008454D0008454D000877
:10012000454D0008454D0008454D0008454D000867
:10013000454D0008454D0008454D0008454D000857
:10014000454D0008454D0008454D0008454D000847
:10015000454D0008454D0008454D0008454D000837
:10016000454D0008454D0008454D0008454D000827
:10017000454D0008454D0008454D000800000000B1
:08018000454D0008454D000843
:1001900010B5054C237833B9044B13B10448AFF3C1
:1001A00000800123237010BD20000020000000000B
:1001B000BC4D000808B5034B1BB103490348AFF31E
:1001C000008008BD0000000024000020BC4D000895
:1001D00080B59AB000AF78600023FB7200233B66C5
:1001E00004F0D0FC012002F089F9814B1B78002B30
:1001F00018D00023FB727F4B1B787F4AA2FB03239E
:100200005B08DBB20133D9B207F10B0307F12C0213
:100210007A4804F005FC764B00221A70754B0022D8
:100220001A701FE0764B1B78012B1BD10DE004F0F8
:10023000EBFA812387F84C3007F10B0307F12C020E
:1002400007F14C00012104F0EBFBFB7A032BEED10C
:100250006B4B02221A706B4B1B786B4A10211846AD
:1002600003F018FE694B1B78012B02D13B6E013362
:100270003B66FB7A002B78D0644B00221A70002377
:100280003B6600237B6608E007F10C027B6E13449B
:1002900000221A707B6E01337B667B6E1D2BF3DDB3
:1002A00000237B6611E07A6E13465B00134407F16E
:1002B0000C02D01807F12C027B6E13441B781946F0
:1002C00003F084FE7B6E01337B66FB7A1A467B6EFD
:1002D0009342E8DBFB7A1A4613465B001344013B6A
:1002E00068333B44202203F85C2CFB7A1A46134601
:1002F0005B00134468333B440D2203F85C2CFB7A0B
:100300001A4613465B001344013368333B440D2205
:1003100003F85C2CFB7A1A4613465B001344023345
:1003200068333B443E2203F85C2C364B1878FB7A4A
:100330000133DBB21A4652001344DBB207F10C0260
:10034000194603F0A7FD0023FB7200237B6608E03B
:1003500007F12C027B6E134400221A707B6E01336E
:100360007B667B6E1D2BF3DD0EE03B6E322B0BD1DB
:10037000244B1B78264A0A21184603F08BFD0023E4
:100380003B66224B00221A7000F014FA03461A460C
:100390001B4B1B78022B0CBF01230023DBB2134045
:1003A000002B3FF41FAF012387F84C30002387F860
:1003B0004D30FB7A002B7FF415AF07F10B0307F1EB
:1003C0002C0207F14C00022104F02AFB0023FB72EF
:1003D00000237B6608E007F12C027B6E13440022A9
:1003E0001A707B6E01337B667B6E1D2BF3DDF9E6A5
:1003F0005902002058020020ABAAAAAA40000020FF
:100400003D0000201C000020D44D00083C000020CE
:10041000E84D000880B59AB000AF786000237B6695
:1004200000233B6107F1140300221A605A609A60AE
:10043000DA601A615A611A830023FB73052387F877
:100440006330002387F8623003F0ACFC40F2DC50EC
:1004500000F07AF900F022FF0023FB7307F10F028E
:1004600007F130031146184603F040FDFB7B002BDB
:10047000F0D097F83030412B0CBF01230023DAB2C3
:1004800097F83130542B0CBF01230023DBB213400B
:10049000DBB21A4697F833305A2B0CBF01230023E6
:1004A000DBB21340002B03D04A4B01221A708DE0BF
:1004B00097F83030472B0CBF01230023DAB297F8AE
:1004C0003130452B0CBF01230023DBB21340DBB2DC
:1004D0001A4697F83230542B0CBF01230023DBB2AD
:1004E0001340002B27D03C4B1B680A2B1BDD3B4BDA
:1004F0001B78394A1268D1B2394A184603F0CAFC4F
:1005000000237B6607E0364A7B6E134400221A7094
:100510007B6E01337B667B6EB3F5FA7FF3DB2E4B8C
:1005200000221A6052E02D4B1B782E4A04211846F7
:1005300003F0B0FC4AE097F83030412B0CBF0123A8
:100540000023DAB297F83130542B0CBF012300237B
:10055000DBB21340DBB21A4697F833305A2B14BF84
:1005600001230023DBB21340002B07D01B4B1B7869
:100570001D4A0521184603F08DFC27E000237B6609
:1005800013E07A6E13465B00134407F13002134404
:10059000184603F0EFFC03461946144A7B6E1344D9
:1005A0000A461A707B6E01337B66FB7B1A467B6EB4
:1005B0009342E6DB0E4B01221A70FA7B0D4B1A7048
:1005C0000D4B00221A700D4B01221A700023FB7391
:1005D00040E700BF3D000020540200201C00002026
:1005E00060000020F44D0008FC4D00084000002091
:1005F0005902002058020020023201203C00002055
:1006000080B582B002AF45F2555000F017FE0320CE
:1006100000F024FE4FF47A6000F030FE00F03EFE61
:1006200000F04AFE0023019303230093002340F6C9
:10063000B8320021084801F005FE0023019302238F
:100640000093002340F6B8320021044801F0FAFD7F
:1006500001F088FFFEE700BFD10100081504000883
:1006600080B400AF00BFBD465DF8047B704780B426
:1006700000AFFEE780B400AFFEE780B400AFFEE756
:1006800080B400AFFEE780B400AF00BFBD465DF8A8
:10069000047B70472DE9B00383B000AF78607B68BE
:1006A00000221C461546084BD3E9002314EB020830
:1006B00045EB0309054BC3E9008900BF0C37BD4674
:1006C000BDE8B003704700BF600200206802002050
:1006D0002DE9B00383B000AF78607B6800221C4630
:1006E0001546084BD3E9002314EB020845EB030938
:1006F000054BC3E9008900BF0C37BD46BDE8B00318
:10070000704700BF60020020700200202DE9B00396
:1007100083B000AF78607B6800221C461546084B0A
:10072000D3E9002314EB020845EB0309054BC3E9A9
:10073000008900BF0C37BD46BDE8B003704700BF5D
:1007400060020020780200202DE9B00383B000AFE2
:1007500078607B6800221C461546084BD3E90023CD
:1007600014EB020845EB0309054BC3E9008900BF00
:100770000C37BD46BDE8B003704700BF60020020E3
:100780008002002080B400AF084BD3E90001084B81
:10079000D3E90023904271EB030301D3002300E06F
:1007A00001231846BD465DF8047B704770020020A7
:1007B0006002002080B400AF084BD3E90001084B71
:1007C000D3E90023904271EB030301D3002300E03F
:1007D00001231846BD465DF8047B7047780200206F
:1007E0006002002080B500AF0C4801F03FF90346DD
:1007F00019460B4B1B881A46C9B20A4B9954084B31
:100800001B8801339AB2064B1A800120FFF742FF82
:100810002021024801F09EF900BF80BD0044004045
:100820002C3001203030012080B500AF0E4B1B78FA
:10083000012B10D10D4801F019F9034619460C4B54
:100840001B781A46C9B20B4B9954094B1B780133DC
:10085000DAB2074B1A700120FFF73AFF2021034854
:1008600001F078F900BF80BD033201200010014083
:10087000023201200831012080B500AF01214FF084
:10088000804000F0F6FF044B1B8801339AB2024B04
:100890001A8000BF80BD00BF0231012080B586B044
:1008A00000AF00237B613B461A460021144800F04C
:1008B000D7FA3B68B3F5FD6F19D1124B1B78002BAB
:1008C00015D100237B610CE007F10B027B69134417
:1008D00019780D4A7B6913440A461A707B69013303
:1008E0007B617B69072BEFDD064B01221A70022129
:1008F000034800F073FB00BF1837BD4680BD00BF42
:100900000064004000310120F830012080B500AFC4
:10091000164BD3F88830154A43F47003C2F8883078
:10092000134B1B68124A43F001031360104B002263
:100930009A600F4B1B680E4A23F0847323F48033B4
:1009400013600B4B0B4A5A60094B1B68084A23F48F
:1009500080231360064B0022DA6000F00DF8034B91
:100960004FF000629A6000BF80BD00BF00ED00E064
:10097000003802401030002480B483B000AF002360
:100980007B6000233B60364B1B68354A43F4803361
:100990001360334B1B6803F400333B607B68013307
:1009A0007B603B68002B03D17B68B3F5A04FF0D18F
:1009B0002B4B1B6803F40033002B02D001233B6058
:1009C00001E000233B603B68012B42D1244B1B6CB0
:1009D000234A43F080531364224B1B68214A43F49B
:1009E000404313601E4B1E4A9B6893601C4B9B68E0
:1009F0001B4A43F400439360194B9B68184A43F425
:100A0000A0539360164B184A5A60154B1B68144A42
:100A100043F08073136000BF114B1B6803F0007339
:100A2000002BF9D0114B40F205721A600C4B9B68F9
:100A30000B4A23F003039360094B9B68084A43F079
:100A40000203936000BF064B9B6803F00C03082B66
:100A5000F9D100BF0C37BD465DF8047B704700BF7D
:100A6000003802400070004008544007003C02403B
:100A700080B483B000AF7860064A7B6843F0BF6300
:100A800043F40033D36000BF0C37BD465DF8047BF0
:100A9000704700BF00ED00E080B485B000AF786023
:100AA0000023FB730023BB730F237B737B68DB780E
:100AB000002B39D0274BDB68DB431B0ADBB203F08A
:100AC0000703FB73FB7BC3F10403BB737A7BFB7BE4
:100AD00042FA03F37B737B685B781A46BB7B02FAAE
:100AE00003F3FB737B689A787B7B1340DAB2FB7B62
:100AF0001343FB73FB7B1B01FB73174A7B681B785B
:100B00001344FA7B83F800237B681B7803F01F03F0
:100B100011497A6812785209D2B21046012202FABB
:100B200003F341F820300FE07B681B7803F01F03CC
:100B300009497A6812785209D2B2104601229A40C5
:100B400000F1200341F8232000BF1437BD465DF8B3
:100B5000047B704700ED00E000E100E080B485B068
:100B600000AF786039600023FB737B689B6803F0FB
:100B70008063B3F1806F02D10023FB7315E07B68C3
:100B80009B6803F00063B3F1006F02D10123FB7394
:100B90000BE07B689B6803F08053B3F1805F02D168
:100BA0000223FB7301E00423FB73FB7B042B00F0A7
:100BB0009F80FB7B7A6818331B0113441A68FB7B08
:100BC00002F00102796818331B010B441A603B687C
:100BD0001B7A002B13D1FB7B7A6818331B0113445B
:100BE00019683B681B685B053A68527A1A43FB7BBD
:100BF0000A43796818331B010B441A6015E0FB7B2C
:100C00007A6818331B01134419683B685B68DB0082
:100C10003A68127A13433A68527A1A43FB7B0A43C2
:100C2000796818331B010B441A603B689B7A03F008
:100C30000F03DAB23B689A72FB7B7A6818331B01A8
:100C4000134404331A68FB7B22F00F0279681833CF
:100C50001B010B4404331A60FB7B7A6818331B01B9
:100C6000134404331A683B689B7A1946FB7B0A439A
:100C7000796818331B010B4404331A603B689B7B73
:100C80001A063B685B7B1B041A433B681B7B1B02F9
:100C90001A433B68DB7A1946FB7B0A4379681B01E0
:100CA0000B4403F5C4731A603B689B7C1A063B68CF
:100CB0005B7C1B041A433B681B7C1B021A433B688A
:100CC000DB7B1946FB7B0A4379681B010B4403F568
:100CD000C6731A60FB7B7A6818331B0113441A68C9
:100CE000FB7B42F00102796818331B010B441A6048
:100CF000FB7B18461437BD465DF8047B7047000047
:100D000080B485B000AF78600B46FB700023FB60B9
:100D1000FB78022B12D0022B16DC002B02D0012B09
:100D200006D011E07B689A68314B1340FB600EE0FF
:100D30007B689A682F4B1340FB6008E07B689A68D9
:100D40002D4B1340FB6002E00023FB6000BFFB68FB
:100D5000294A93423DD0FB68274A93423CD8FB681E
:100D6000264A93422CD0FB68244A934234D8FB682D
:100D7000204A93422AD0FB681E4A93422CD8FB6833
:100D80001F4A934219D0FB681D4A934224D8FB683E
:100D9000174A934217D0FB68154A93421CD8FB6848
:100DA000002B04D0FB68174A934203D014E00223BF
:100DB000FB6014E00023FB6011E00023FB600EE009
:100DC0000023FB600BE00123FB6008E00123FB60D4
:100DD00005E00123FB6002E00023FB6000BFFB682D
:100DE000DBB218461437BD465DF8047B704700BF80
:100DF00003000004000300080000031000000110BD
:100E0000000100080100000480B483B000AF7860E6
:100E10000B46FB70FB78022B14D0022B19DC002B45
:100E200002D0012B07D014E07B689B6843F080025E
:100E30007B689A600EE07B689B6843F400427B68A5
:100E40009A6007E07B689B6843F400027B689A60C5
:100E500000E000BF00BF0C37BD465DF8047B704763
:100E600080B485B000AFF8600B467A60FB72FB7A05
:100E7000FA681B331B0113441B68DBB203F0040345
:100E8000DAB27B681A727B681B7A002B0BD1FB7A73
:100E9000FA681B331B0113441B685B0DC3F30A0282
:100EA0007B681A600AE0FB7AFA681B331B01134463
:100EB0001B68DB0823F060427B685A60FB7AFA68A3
:100EC0001B331B0113441B68DBB203F00203DAB2CD
:100ED0007B685A72FB7AFA681B331B011344043394
:100EE0001B68DBB203F00F03DAB27B689A72FB7AFD
:100EF000FA681B331B01134404331B681B0ADAB264
:100F00007B68DA74FB7AFA681B01134403F5DC731F
:100F10001B68DAB27B68DA72FB7AFA681B01134449
:100F200003F5DC731B681B0ADAB27B681A73FB7A61
:100F3000FA681B01134403F5DC731B681B0CDAB25F
:100F40007B685A73FB7AFA681B01134403F5DC7360
:100F50001B681B0EDAB27B689A73FB7AFA681B0176
:100F6000134403F5DE731B68DAB27B68DA73FB7A2D
:100F7000FA681B01134403F5DE731B681B0ADAB21F
:100F80007B681A74FB7AFA681B01134403F5DE735D
:100F90001B681B0CDAB27B685A74FB7AFA681B0177
:100FA000134403F5DE731B681B0EDAB27B689A7478
:100FB000FB7A002B06D1FB68DB6843F02002FB685C
:100FC000DA6005E0FB681B6943F02002FB681A61E8
:100FD00000BF1437BD465DF8047B704780B485B010
:100FE00000AF786039600023FB603B68174A93428A
:100FF00003D17B6800229A6121E03B68C3F31303AD
:10100000FB603B6803F00073002B03D07B68FA6839
:10101000DA6014E03B6803F08063002B03D07B6848
:10102000FA681A610BE03B6803F00063002B03D001
:101030007B68FA689A6002E07B68FA685A6000BFD1
:101040001437BD465DF8047B704700BF7000F03078
:1010500080B487B000AF7860396000237B610023E3
:101060003B610023FB6000237B6176E001227B690A
:1010700002FA03F33B613B681B683A691340FB606B
:10108000FA683B699A4265D17B681A687B695B00A4
:10109000032101FA03F3DB431A407B681A607B6883
:1010A0001A683B681B7919467B695B0001FA03F3F8
:1010B0001A437B681A603B681B79012B03D03B689D
:1010C0001B79022B2ED17B689A687B695B00032118
:1010D00001FA03F3DB431A407B689A607B689A68E5
:1010E0003B685B7919467B695B0001FA03F31A439D
:1010F0007B689A607B685A687B699BB219460123BA
:101100008B40DB431A407B685A607B685B683A68B7
:10111000927911467A6992B201FA02F292B21A43B6
:101120007B685A607B68DA687B699BB25B0003214D
:1011300001FA03F3DB431A407B68DA607B68DA6804
:101140003B68DB7919467B695B0001FA03F31A43BC
:101150007B68DA607B6901337B617B690F2B85D902
:1011600000BF00BF1C37BD465DF8047B704780B4EC
:1011700083B000AF78600B467B807B687A881A83E7
:1011800000BF0C37BD465DF8047B704780B483B068
:1011900000AF78600B467B807B687A885A8300BFFB
:1011A0000C37BD465DF8047B704780B485B000AF56
:1011B00078600B467B8013467B700023FB60002326
:1011C000BB607A787B8803F007039B0002FA03F385
:1011D000FB607B88DB089BB21A467B68083253F8B9
:1011E00022207B8803F007039B000F2101FA03F301
:1011F000DB437988C90889B2084602EA03017B68A3
:1012000000F1080243F822107B88DB089BB21A46E3
:101210007B68083253F82230FA681343BB607B883E
:10122000DB089BB21A467B680832B96843F8221083
:1012300000BF1437BD465DF8047B704780B483B0AF
:1012400000AF0346FB80044AFB88136000BF0C37E5
:10125000BD465DF8047B70470030004080B483B029
:1012600000AF0346FB71044AFB79536000BF0C37A3
:10127000BD465DF8047B70470030004080B483B009
:1012800000AF0346FB80044AFB88936000BF0C3725
:10129000BD465DF8047B70470030004080B400AF6D
:1012A000044B4AF6AA221A6000BFBD465DF8047BD3
:1012B000704700BF0030004080B400AF044B4CF6D4
:1012C000CC421A6000BFBD465DF8047B704700BF8A
:1012D0000030004080B489B000AF78600023BB616B
:1012E00000237B610023FB6102233B610023FB6041
:1012F0000223BB604A4B9B6803F00C03BB61BB69D4
:10130000082B11D0BB69082B44D8BB69002B03D034
:10131000BB69042B04D03DE07B68424A1A603DE083
:101320007B68414A1A6039E03D4B5B689B0D03F0D6
:101330000103FB603A4B5B6803F03F03BB60FB6853
:10134000002B0CD0384ABB68B2FBF3F3344A526826
:101350009209C2F3080202FB03F3FB610BE0314A7E
:10136000BB68B2FBF3F32E4A52689209C2F308023B
:1013700002FB03F3FB612A4B5B681B0C03F00303C6
:1013800001335B003B61FA693B69B2FBF3F27B68B6
:101390001A6003E07B68234A1A6000BF204B9B68F9
:1013A00003F0F003BB61BB691B09BB611F4ABB694A
:1013B00013441B78DBB27B617B681A687B69DA4077
:1013C0007B685A60164B9B6803F4E053BB61BB69B2
:1013D0009B0ABB61154ABB6913441B78DBB27B6176
:1013E0007B685A687B69DA407B689A600C4B9B6823
:1013F00003F46043BB61BB695B0BBB610B4ABB6918
:1014000013441B78DBB27B617B685A687B69DA40E6
:101410007B68DA6000BF2437BD465DF8047B704707
:10142000003802400024F40000127A00040000207A
:1014300080B483B000AF78600B46FB70FB78002B64
:1014400006D00A4B1A6C09497B6813430B6406E00B
:10145000064B1A6C7B68DB43044913400B6400BFE6
:101460000C37BD465DF8047B704700BF0038024072
:1014700080B483B000AF78600B46FB70FB78002B24
:1014800006D00A4B5A6C09497B6813434B6406E04B
:10149000064B5A6C7B68DB43044913404B6400BF26
:1014A0000C37BD465DF8047B704700BF0038024032
:1014B00080B483B000AF78600B46FB70FB78002BE4
:1014C00006D00A4B1A6A09497B6813430B6206E08F
:1014D000064B1A6A7B68DB43044913400B6200BF6A
:1014E0000C37BD465DF8047B704700BF00380240F2
:1014F00080B483B000AF78600B46FB70FB78002BA4
:1015000006D00A4B5A6A09497B6813434B6206E0CE
:10151000064B5A6A7B68DB43044913404B6200BFA9
:101520000C37BD465DF8047B704700BF00380240B1
:1015300080B582B000AF78607B68604A934208D182
:1015400001210120FFF7D4FF00210120FFF7D0FF88
:10155000AFE07B68B3F1804F08D101210120FFF794
:10156000A7FF00210120FFF7A3FFA2E07B68544AF8
:10157000934208D101210220FFF79AFF00210220A7
:10158000FFF796FF95E07B684E4A934208D1012110
:101590000420FFF78DFF00210420FFF789FF88E07A
:1015A0007B68494A934208D101210820FFF780FF58
:1015B00000210820FFF77CFF7BE07B68434A9342D1
:1015C00008D101211020FFF773FF00211020FFF741
:1015D0006FFF6EE07B683E4A934208D101212020D4
:1015E000FFF766FF00212020FFF762FF61E07B68C4
:1015F000384A934208D101210220FFF779FF0021E8
:101600000220FFF775FF54E07B68334A93420AD10A
:1016100001214FF48030FFF76BFF00214FF4803041
:10162000FFF766FF45E07B682C4A93420AD101210F
:101630004FF40030FFF75CFF00214FF40030FFF75C
:1016400057FF36E07B68264A93420AD101214FF4C6
:101650008020FFF74DFF00214FF48020FFF748FF67
:1016600027E07B681F4A934208D101214020FFF701
:101670001FFF00214020FFF71BFF1AE07B681A4A7A
:10168000934208D101218020FFF712FF0021802022
:10169000FFF70EFF0DE07B68144A934209D1012148
:1016A0004FF48070FFF704FF00214FF48070FFF7C4
:1016B000FFFE00BF0837BD4680BD00BF00000140EF
:1016C0000004004000080040000C004000100040F2
:1016D000001400400004014000400140004401406B
:1016E0000048014000180040001C0040002000405D
:1016F00080B485B000AF786039600023FB817B68DF
:101700001B88FB817B68294A934213D07B68284A57
:1017100093420FD07B68B3F1804F0BD07B68254A92
:10172000934207D07B68244A934203D07B68234AC4
:10173000934208D1FB8923F07003FB813B685A88F0
:10174000FB891343FB817B681D4A93420CD07B6865
:101750001C4A934208D0FB8923F44073FB813B6809
:101760001A89FB891343FB817B68FA891A803B68DD
:101770005A687B68DA623B681A887B681A857B68DE
:101780000A4A934203D07B68094A934204D13B68DA
:101790009B7A9AB27B681A867B6801229A8200BF84
:1017A0001437BD465DF8047B704700BF0000014060
:1017B000000401400004004000080040000C00400C
:1017C000001000400014004080B483B000AF786087
:1017D0000B46FB70FB78002B08D07B681B889BB204
:1017E00043F001039AB27B681A8007E07B681B888C
:1017F0009BB223F001039AB27B681A8000BF0C37BA
:10180000BD465DF8047B704780B483B000AF78605C
:101810000B467B8013467B707B78002B08D07B685F
:101820009B899AB27B8813439AB27B689A8109E0BC
:101830007B689B899AB27B88DB439BB213409AB248
:101840007B689A8100BF0C37BD465DF8047B70470A
:1018500080B483B000AF78600B467B807B88DB432D
:101860009AB27B681A8200BF0C37BD465DF8047BD4
:10187000704780B483B000AF78600B467B807B8874
:10188000DB439AB27B681A8200BF0C37BD465DF815
:10189000047B704780B58AB000AF78603960002360
:1018A0007B6200233B620023FB610023BB617B68FA
:1018B0001B8A9BB27B627B6A23F440537B623B684A
:1018C000DB881A467B6A13437B627B6A9AB27B6829
:1018D0001A827B689B899BB27B627B6A23F4B0533C
:1018E00023F00C037B623B689A883B681B89134397
:1018F0009AB23B685B8913439BB21A467B6A1343D7
:101900007B627B6A9AB27B689A817B689B8A9BB276
:101910007B627B6A23F440737B623B689B891A4637
:101920007B6A13437B627B6A9AB27B689A8207F177
:1019300008031846FFF7CEFC7B68304A934203D079
:101940007B682F4A934202D17B693B6201E03B698D
:101950003B627B689B899BB21BB2002B0CDA3A6A14
:1019600013469B0013449A001A443B681B685B00B3
:10197000B2FBF3F3FB610BE03A6A13469B0013449E
:101980009A001A443B681B689B00B2FBF3F3FB61AF
:10199000FB691C4AA2FB03235B091B017B627B6A78
:1019A0001B09642202FB03F3FA69D31ABB617B684B
:1019B0009B899BB21BB2002B0CDABB69DB00323374
:1019C000104AA2FB03235B0903F007037A6A13435F
:1019D0007B620BE0BB691B0132330A4AA2FB032383
:1019E0005B0903F00F037A6A13437B627B6A9AB246
:1019F0007B681A8100BF2837BD4680BD00100140BA
:101A0000001401401F85EB5180B483B000AF7860B3
:101A10000B46FB70FB78002B08D07B689B899BB240
:101A200043F400539AB27B689A8107E07B689B89F4
:101A30009BB223F400539AB27B689A8100BF0C37A3
:101A4000BD465DF8047B704780B483B000AF78601A
:101A50000B467B807B88C3F308039AB27B689A802D
:101A600000BF0C37BD465DF8047B704780B483B07F
:101A700000AF78607B689B889BB2C3F308039BB27E
:101A800018460C37BD465DF8047B704780B487B0BC
:101A900000AF78600B467B8013467B7000233B6170
:101AA0000023FB600023BB6000237B617B687B61BC
:101AB0007B88DBB25B09DBB23B617B8803F01F03F1
:101AC000FB600122FB6802FA03F3BB603B69012B58
:101AD00003D17B690C337B6109E03B69022B03D1A5
:101AE0007B6910337B6102E07B6914337B617B7817
:101AF000002B06D07B6919687B69BA680A431A60B3
:101B000006E07B691968BB68DA437B690A401A60A2
:101B100000BF1C37BD465DF8047B704780B485B0BC
:101B200000AF78600B467B800023FB737B681B88CB
:101B30009AB27B8813409BB2002B02D00123FB7327
:101B400001E00023FB73FB7B18461437BD465DF8AC
:101B5000047B704780B483B000AF78600B467B8015
:101B60007B88DB439AB27B681A8000BF0C37BD4686
:101B70005DF8047B704780B483B000AF78607B6809
:101B800003F108027B685A607B684FF0FF329A606D
:101B90007B6803F108027B68DA607B6803F1080266
:101BA0007B681A617B6800221A6000BF0C37BD4653
:101BB0005DF8047B704780B483B000AF78607B68C9
:101BC00000221A6100BF0C37BD465DF8047B7047E8
:101BD00080B485B000AF786039603B681B68BB603B
:101BE000BB68B3F1FF3F03D17B681B69FB600CE06E
:101BF0007B680833FB6002E0FB685B68FB60FB68A6
:101C00005B681B68BA689A42F6D2FB685A683B6800
:101C10005A603B685B683A689A603B68FA689A6009
:101C2000FB683A685A603B687A681A617B681B688F
:101C30005A1C7B681A6000BF1437BD465DF8047BF0
:101C4000704780B485B000AF78607B681B69FB602B
:101C50007B685B687A6892689A607B689B687A6840
:101C600052685A60FB685B687A689A4203D17B6865
:101C70009A68FB685A607B6800221A61FB681B68DF
:101C80005A1EFB681A60FB681B6818461437BD466D
:101C90005DF8047B704780B586B000AF786039602E
:101CA00001237B617B683B613B69002B0AD14FF0CC
:101CB000500383F31188BFF36F8FBFF34F8FFB6027
:101CC00000BFFEE73B69002B52D03B69DB6B002B6A
:101CD0004ED03B691A6C3B69DB6B0021A3FB0223EE
:101CE000002B00D001210B46002B41D101F0ACFDAF
:101CF0003B691A683B69DB6B3969096C01FB03F3CB
:101D00001A443B699A603B6900229A633B691A68EE
:101D10003B695A603B691A683B69DB6B013B396977
:101D2000096C01FB03F31A443B69DA603B69FF224B
:101D300083F844203B69FF2283F845203B68002B51
:101D400009D13B691B69002B0FD03B691033184642
:101D500000F020FF09E03B6910331846FFF70BFF46
:101D60003B6924331846FFF706FF01F09DFD01E0B3
:101D700000237B617B69002B0AD14FF0500383F372
:101D80001188BFF36F8FBFF34F8FBB6000BFFEE7BB
:101D90007B6918461837BD4680BD80B58AB002AF52
:101DA000F860B9601346FB710023FB61FB68002BF0
:101DB0002ED00021BA68FB68A3FB0223002B00D0C1
:101DC00001210B46002B23D1FB68BA6802FB03F309
:101DD00013F1510F1CD8FB68BA6802FB03F3BB6117
:101DE000BB695033184601F011FEF861FB69002B06
:101DF0001CD0FB697B617B6950337B61FA79FB699D
:101E0000009313467A69B968F86800F014F80DE099
:101E1000FB69002B0AD14FF0500383F31188BFF305
:101E20006F8FBFF34F8F3B6100BFFEE7FB69184622
:101E30002037BD4680BD80B584B000AFF860B96082
:101E40007A60FB70BB68002B03D1BB69BA691A606A
:101E500002E0BB697A681A60BB69FA68DA63BB6939
:101E6000BA681A640121B869FFF715FFBB69FA78EF
:101E700083F84C2000BF1037BD4680BD80B58CB0C4
:101E800000AFF860B9607A600023FB62FB68BB6258
:101E9000BB6A002B0AD14FF0500383F31188BFF3C4
:101EA0006F8FBFF34F8F3B6200BFFEE7BB68002B15
:101EB00003D1BB6A1B6C002B01D1012300E000237E
:101EC000002B0AD14FF0500383F31188BFF36F8FBB
:101ED000BFF34F8FFB6100BFFEE701F065F80346DB
:101EE000002B02D17B68002B01D1012300E00023ED
:101EF000002B0AD14FF0500383F31188BFF36F8F8B
:101F0000BFF34F8FBB6100BFFEE701F09DFCBB6AD2
:101F10009B6B7B627B6A002B14D0B968B86A00F0B7
:101F200081F87B6A5A1EBB6A9A63BB6A1B69002BE5
:101F300004D0BB6A1033184600F02CFE01F0B4FC4C
:101F4000012369E07B68002B03D101F0ADFC002385
:101F500062E0FB6A002B06D107F11003184600F07F
:101F6000EFFE0123FB6201F09FFC00F04DFB01F04E
:101F70006BFCBB6A93F844305BB2B3F1FF3F03D113
:101F8000BB6A002283F84420BB6A93F845305BB2F9
:101F9000B3F1FF3F03D1BB6A002283F8452001F073
:101FA00083FC3A1D07F110031146184600F0DEFECF
:101FB0000346002B23D1B86A00F0ACF80346002B8F
:101FC00017D0BB6A24337A681146184600F078FDB2
:101FD000B86A00F04DF800F025FB0346002B94D1C1
:101FE0000F4B4FF080521A60BFF34F8FBFF36F8FCC
:101FF0008BE7B86A00F03CF800F014FB85E7B86A9C
:1020000000F036F800F00EFBB86A00F083F80346E3
:10201000002B3FF47AAF002318463037BD4680BD11
:1020200004ED00E080B582B000AF786039607B6875
:102030001B6C002B18D07B68DA687B681B6C1A4419
:102040007B68DA607B68DA687B689B689A4203D3B6
:102050007B681A687B68DA607B68D9687B681B6C70
:102060001A46386802F094FE00BF0837BD4680BDAE
:1020700080B584B000AF786001F0E6FB7B6893F830
:102080004530FB7311E07B685B6A002B12D07B68E4
:102090002433184600F07EFD0346002B01D000F0EB
:1020A000CBFEFB7B013BDBB2FB7397F90F30002BC0
:1020B000E9DC00E000BF7B68FF2283F8452001F0E7
:1020C000F3FB01F0C1FB7B6893F84430BB7311E074
:1020D0007B681B69002B12D07B681033184600F018
:1020E00059FD0346002B01D000F0A6FEBB7B013B4F
:1020F000DBB2BB7397F90E30002BE9DC00E000BFC8
:102100007B68FF2283F8442001F0CEFB00BF10372C
:10211000BD4680BD80B584B000AF786001F094FB0F
:102120007B689B6B002B02D10123FB6001E0002345
:10213000FB6001F0B9FBFB6818461037BD4680BD57
:1021400080B487B000AF7860396000233B617B6862
:10215000002B0AD14FF0500383F31188BFF36F8F28
:10216000BFF34F8FFB6000BFFEE73B68002B24D01E
:1021700000237B611EE0184A7B69DB0013445B6827
:102180007A689A4205D17B69DB00134A13443B61AC
:1021900013E03B69002B0AD10F4A7B6952F83330B8
:1021A000002B04D17B69DB000B4A13443B617B6944
:1021B00001337B617B69072BDDD93B69002B05D09F
:1021C0003B693A681A603B697A685A6000BF1C37FD
:1021D000BD465DF8047B70478802002080B586B05C
:1021E00000AFF860B9607A60FB687B6101F02CFB9E
:1021F0007B6993F844305BB2B3F1FF3F03D17B6955
:10220000002283F844207B6993F845305BB2B3F138
:10221000FF3F03D17B69002283F8452001F044FB96
:102220007B699B6B002B06D17B6924337A68B96884
:10223000184600F069FC7869FFF71AFF00BF1837ED
:10224000BD4680BD80B58CB004AFF860B9603B601E
:102250001346FB80FB889B00184601F0D7FB786192
:102260007B69002B13D0582001F0D0FBF861FB698B
:10227000002B08D058220021F86902F097FDFB6975
:102280007A691A6305E0786901F07AFC01E00023BD
:10229000FB61FB69002B13D0FA8800230393FB69D1
:1022A0000293FB6A0193BB6A00933B68B968F868C4
:1022B00000F00EF8F86900F099F80123BB6102E024
:1022C0004FF0FF33BB61BB6918462037BD4680BD68
:1022D00080B588B000AFF860B9607A603B603B6B56
:1022E000186B7B689B001A46A52102F05FFD3B6BD3
:1022F0001A6B7B6803F18043013B9B001344BB6175
:10230000BB6923F00703BB61BB6903F00703002B24
:102310000AD04FF0500383F31188BFF36F8FBFF3E0
:102320004F8F7B6100BFFEE7BB68002B1ED00023F0
:10233000FB6112E0BA68FB69134419783A6BFB69D8
:10234000134434330A461A70BA68FB6913441B7885
:10235000002B06D0FB690133FB61FB69092BE9D92E
:1023600000E000BF3B6B002283F83D20BB6A042BDA
:102370000AD94FF0500383F31188BFF36F8FBFF377
:102380004F8F3B6100BFFEE7BB6A042B01D90423DA
:10239000BB623B6BBA6ADA623B6BBA6A9A643B6BAC
:1023A00004331846FFF707FC3B6B18331846FFF75A
:1023B00002FC3B6B3A6B1A61BB6AC3F105023B6BD3
:1023C0009A613B6B3A6B5A623A68F968B86901F0F6
:1023D0000DF902463B6B1A60FB6A002B02D0FB6AC8
:1023E0003A6B1A6000BF2037BD4680BD80B584B00F
:1023F00000AF786001F028FA3A4B1B680133394A84
:102400001360394B1B68002B09D1374A7B68136076
:10241000344B1B68012B10D100F02CFD0DE0334B29
:102420001B68002B09D1304B1B68DA6A7B68DB6ABA
:102430009A4202D82C4A7B6813602D4B1B680133EB
:102440002B4A13602A4B1A687B681A647B68DB6A24
:1024500001229A40274B1B681343264A13607B686E
:10246000DA6A254913469B0013449B000B4404334E
:102470001B68FB607B68FA689A60FB689A687B68F7
:10248000DA60FB689B687A6804325A607B681A1DC0
:10249000FB689A607B68DA6A13469B0013449B00D2
:1024A000154A1A447B685A617B68DA6A12491346F6
:1024B0009B0013449B000B441B68591C0E48134699
:1024C0009B0013449B000344196001F0EDF9074B96
:1024D0001B68002B01D0044B1B6800BF1037BD46A2
:1024E00080BD00BFA0030020C8020020AC03002074
:1024F000BC030020A8030020CC02002080B584B0DB
:1025000000AF78600023FB607B68002B17D0134B73
:102510001B68002B0AD04FF0500383F31188BFF3E0
:102520006F8FBFF34F8FBB6000BFFEE700F06CF80A
:102530000021786800F056FD00F074F8F860FB6840
:10254000002B07D1064B4FF080521A60BFF34F8F1C
:10255000BFF36F8F00BF1037BD4680BDC80300209A
:1025600004ED00E080B586B002AF204B019300235C
:102570000093002382221E491E48FFF763FEF86085
:10258000FB68012B02D100F0ADFDF860FB68012B68
:1025900016D14FF0500383F31188BFF36F8FBFF351
:1025A0004F8FBB6000BF144B4FF0FF321A60134BCC
:1025B00001221A60124B00221A6001F0A3F80EE00B
:1025C000FB68B3F1FF3F0AD14FF0500383F311884A
:1025D000BFF36F8FBFF34F8F7B6000BFFEE7094BE8
:1025E0001B6800BF1037BD4680BD00BFC40300207C
:1025F000044E0008512E0008C0030020AC03002048
:10260000A40300201400002080B400AF044B1B681A
:102610000133034A136000BFBD465DF8047B704779
:10262000C803002080B588B000AF0023FB61002301
:102630007B616B4B1B68002B0AD14FF0500383F377
:102640001188BFF36F8FBFF34F8F7B6000BFFEE732
:1026500001F0FAF8624B1B68013B614A1360604B62
:102660001B68002B40F0B4805E4B1B68002B00F011
:10267000AF808AE05C4BDB68DB68FB61FB699B6ACF
:102680003B61FB69DB69FA69126A9A60FB691B6A44
:10269000FA69D2695A603B695A68FB6918339A42F1
:1026A00003D1FB691A6A3B695A60FB6900229A628E
:1026B0003B691B685A1E3B691A60FB695B69FB60DA
:1026C000FB699B68FA69D2689A60FB69DB68FA6902
:1026D00092685A60FB685A68FB6904339A4203D1D6
:1026E000FB69DA68FB685A60FB6900225A61FB6883
:1026F0001B685A1EFB681A60FB69DB6A01229A405C
:102700003A4B1B681343394A1360FB69DA6A38494C
:1027100013469B0013449B000B4404331B68BB60AF
:10272000FB69BA689A60BB689A68FB69DA60BB6843
:102730009B68FA6904325A60FB691A1DBB689A608B
:10274000FB69DA6A13469B0013449B00284A1A442B
:10275000FB695A61FB69DA6A254913469B001344F9
:102760009B000B441B68591C214813469B001344D3
:102770009B0003441960FB69DA6A1E4B1B68DB6A25
:102780009A4202D31C4B01221A60174B1B68002B84
:102790007FF470AFFB69002B01D000F0E9FB174B11
:1027A0001B68BB61BB69002B10D000F039F80346F1
:1027B000002B02D0104B01221A60BB69013BBB61A8
:1027C000BB69002BF1D10D4B00221A600A4B1B682C
:1027D00001F06AF87B6918462037BD4680BD00BF0E
:1027E000C8030020A003002060030020A8030020ED
:1027F000CC020020C8020020B4030020B003002057
:1028000080B483B000AF054B1B687B607B681846C3
:102810000C37BD465DF8047B704700BFA403002061
:1028200080B58AB000AF00237B626E4B1B68002B23
:1028300040F0CD806C4B1B6801333B626A4A3B6AB7
:1028400013603B6A002B20D1684B1B681B68002B70
:102850000AD04FF0500383F31188BFF36F8FBFF39B
:102860004F8F7B6000BFFEE7604B1B68FB61604BD6
:102870001B685E4A13605E4AFB6913605D4B1B6810
:1028800001335C4A136000F073FB5B4B1B683A6AD0
:102890009A42C0F0A180554B1B681B68002B04D1E5
:1028A000554B4FF0FF321A6096E0504B1B68DB68C7
:1028B000DB68BB61BB695B687B613A6A7B699A4292
:1028C00003D24D4A7B69136086E0BB695B693B615B
:1028D000BB699B68BA69D2689A60BB69DB68BA69F0
:1028E00092685A603B695A68BB6904339A4203D1C3
:1028F000BB69DA683B695A60BB6900225A613B696F
:102900001B685A1E3B691A60BB699B6A002B1ED06C
:10291000BB699B6AFB60BB69DB69BA69126A9A6032
:10292000BB691B6ABA69D2695A60FB685A68BB699D
:1029300018339A4203D1BB691A6AFB685A60BB69B3
:1029400000229A62FB681B685A1EFB681A60BB690A
:10295000DB6A01229A40294B1B681343274A136004
:10296000BB69DA6A264913469B0013449B000B445B
:1029700004331B68BB60BB69BA689A60BB689A681D
:10298000BB69DA60BB689B68BA6904325A60BB698C
:102990001A1DBB689A60BB69DA6A13469B00134430
:1029A0009B00174A1A44BB695A61BB69DA6A144929
:1029B00013469B0013449B000B441B68591C104892
:1029C00013469B0013449B000344196063E70D4BBF
:1029D0001B6801330B4A13607B6A18462837BD46D3
:1029E00080BD00BFC8030020A403002058030020BE
:1029F0005C030020B8030020C0030020A8030020CF
:102A0000CC020020B003002080B487B000AF274B79
:102A10001B68002B03D0264B01221A603FE0244B99
:102A200000221A60234B1B68FB60FB68B3FA83F338
:102A3000FB72FB7AC3F11F037B611F497A6913465E
:102A40009B0013449B000B441B68002B0AD14FF0E2
:102A5000500383F31188BFF36F8FBFF34F8F7B60F9
:102A600000BFFEE77A6913469B0013449B00124A9D
:102A700013443B613B695B685A683B695A603B6938
:102A80005A683B6908339A4204D13B695B685A68CB
:102A90003B695A603B695B68DB68084A136000BFAA
:102AA0001C37BD465DF8047B704700BFC80300209B
:102AB000B4030020A8030020CC020020C80200209C
:102AC00080B584B000AF786039607B68002B0AD194
:102AD0004FF0500383F31188BFF36F8FBFF34F8F15
:102AE000FB6000BFFEE7074B1B6818331946786888
:102AF000FFF76EF80121386800F074FA00BF103754
:102B0000BD4680BDC802002080B586B000AFF86029
:102B1000B9607A60FB68002B0AD14FF0500383F351
:102B20001188BFF36F8FBFF34F8F3B6100BFFEE78C
:102B3000FB685B687B61164B1B687A69DA61144B32
:102B40001B687A6992681A62114B1A687B699B68E4
:102B500018325A600E4B1B6803F118027B699A60A9
:102B60000B4B1B68FA689A62FB681B685A1CFB686F
:102B70001A607B68002B02D04FF0FF33BB6079688E
:102B8000B86800F02FFA00BF1837BD4680BD00BFFF
:102B9000C802002080B48BB000AF78607B68DB682F
:102BA000DB683B623B6A002B0AD14FF0500383F392
:102BB0001188BFF36F8FBFF34F8FFB6000BFFEE73D
:102BC0003B6A9B6AFB613B6ADB693A6A126A9A60FC
:102BD0003B6A1B6A3A6AD2695A60FB695A683B6A67
:102BE00018339A4203D13B6A1A6AFB695A603B6AFE
:102BF00000229A62FB691B685A1EFB691A604A4BE5
:102C00001B68002B5ED13B6A5B697B613B6A9B68FA
:102C10003A6AD2689A603B6ADB683A6A92685A609C
:102C20007B695A683B6A04339A4203D13B6ADA688B
:102C30007B695A603B6A00225A617B691B685A1E95
:102C40007B691A603B6ADB6A01229A40374B1B683A
:102C50001343364A13603B6ADA6A354913469B00D0
:102C600013449B000B4404331B683B613B6A3A6985
:102C70009A603B699A683B6ADA603B699B683A6A8A
:102C800004325A603B6A1A1D3B699A603B6ADA6AF1
:102C900013469B0013449B00254A1A443B6A5A6121
:102CA0003B6ADA6A224913469B0013449B000B449B
:102CB0001B68591C1E4813469B0013449B00034489
:102CC00019601BE01B4B5B68BB613B6ABA69DA6148
:102CD000BB699A683B6A1A62BB699B683A6A183298
:102CE0005A603B6A03F11802BB699A603B6A114A59
:102CF0009A62104B1B6801330E4A13603B6ADA6A12
:102D00000D4B1B68DB6A9A4205D901237B620B4B92
:102D100001221A6001E000237B627B6A18462C378F
:102D2000BD465DF8047B7047C8030020A80300205F
:102D3000CC02002060030020C8020020B403002061
:102D400080B483B000AF7860064B1A687B681A6065
:102D5000054B1A687B685A6000BF0C37BD465DF8AA
:102D6000047B7047B8030020A403002080B588B01E
:102D700000AF786039607B68002B0AD14FF05003B8
:102D800083F31188BFF36F8FBFF34F8F3B6100BF99
:102D9000FEE73B68002B0AD14FF0500383F3118804
:102DA000BFF36F8FBFF34F8FFB6000BFFEE700F0F4
:102DB0004BFD1F4B1B68BB617B685B68BA69D31A0C
:102DC0007B613B681B68B3F1FF3F02D10023FB61CD
:102DD00026E07B681A68174B1B689A420AD07B680A
:102DE0005B68BA699A4205D30123FB613B68002204
:102DF0001A6015E03B681B687A699A420BD23B68FF
:102E00001A687B69D21A3B681A607868FFF798FFE6
:102E10000023FB6104E03B6800221A600123FB6190
:102E200000F042FDFB6918462037BD4680BD00BF5B
:102E3000A4030020B803002080B400AF034B01229C
:102E40001A6000BFBD465DF8047B7047B4030020E4
:102E500080B582B000AF786000F04CF8044B4FF0C2
:102E600080521A60BFF34F8FBFF36F8FF4E700BF3C
:102E700004ED00E080B582B000AF00237B600CE081
:102E80007A6813469B0013449B00124A1344184669
:102E9000FEF771FE7B6801337B607B68042BEFD902
:102EA0000D48FEF768FE0D48FEF765FE0C48FEF77C
:102EB00062FE0C48FEF75FFE0B48FEF75CFE0B4B14
:102EC000054A1A600A4B054A1A6000BF0837BD461A
:102ED00080BD00BFCC02002030030020440300204E
:102EE00060030020740300208C030020580300209E
:102EF0005C03002080B582B000AF19E000F0A4FCB4
:102F0000104BDB68DB687B607B6804331846FEF798
:102F100098FE0D4B1B68013B0B4A13600B4B1B6863
:102F2000013B0A4A136000F0BFFC786800F010F81B
:102F3000064B1B68002BE1D100BF00BF0837BD4620
:102F400080BD00BF74030020A00300208803002080
:102F500080B582B000AF78607B681B6B184600F0CC
:102F60000FFE786800F00CFE00BF0837BD4680BD3C
:102F700080B400AF0A4B1B681B68002B04D1094BBF
:102F80004FF0FF321A6005E0054B1B68DB681B68D9
:102F9000044A136000BFBD465DF8047B704700BF64
:102FA00058030020C003002080B483B000AF0B4B57
:102FB0001B68002B02D101237B6008E0084B1B68D3
:102FC000002B02D102237B6001E000237B607B6841
:102FD00018460C37BD465DF8047B7047AC030020F3
:102FE000C803002080B586B000AF78603960364BEA
:102FF0001B687B61354B1B6804331846FEF721FEC6
:103000000346002B0BD1314B1B68DB6A012202FA0D
:1030100003F3DA432E4B1B6813402D4A13607B6881
:10302000B3F1FF3F24D13B68002B21D0294B5B68D3
:103030003B61264B1B683A699A60244B1B683A69CE
:103040009268DA60214B1A683B699B6804325A60C7
:103050001E4B1B681A1D3B699A601C4B1B681D4A5E
:103060005A611C4B1B6801331A4A136000BF26E0EB
:103070007A697B681344FB60144B1B68FA685A60DA
:10308000FA687B699A4209D2134B1A680F4B1B6886
:10309000043319461046FEF79BFD10E00F4B1A68EB
:1030A0000A4B1B68043319461046FEF791FD0C4B82
:1030B0001B68FA689A4202D2094AFB68136000BF93
:1030C0001837BD4680BD00BFA4030020C802002001
:1030D000A80300208C0300205C030020580300207C
:1030E000C003002080B584B002AF00237B6000F0F5
:1030F00047FA114B1B68002B0BD0104B0193022396
:10310000009300234FF482720D490E48FFF79AF89E
:1031100078607B68002B0AD14FF0500383F311884D
:10312000BFF36F8FBFF34F8F3B6000BFFEE77B683D
:1031300018460837BD4680BDFC030020000400206F
:103140000C4E0008ED31000880B584B000AFF86087
:10315000B9607A6008E0FB689B69BA681344BB6099
:10316000FB681B6AF8689847FB689A69BB68D118C6
:10317000BB687A68F86800F0DDF80346002BEAD1F6
:1031800000BF00BF1037BD4680BD000080B584B0D1
:1031900000AF78603960144B1B68DB68DB68FB604C
:1031A000FB6804331846FEF74CFDFB6893F82830A3
:1031B00003F00403002B05D03A687968F868FFF73C
:1031C000C3FF08E0FB6893F8283023F00103DAB26C
:1031D000FB6883F82820FB681B6AF868984700BFE3
:1031E0001037BD4680BD00BFF403002080B584B019
:1031F00000AF786007F10803184600F057F8F86050
:10320000BB681946F86800F003F800F0D5F8F1E75C
:1032100080B584B000AF78603960FFF7F5F907F149
:103220000803184600F066F8F860BB68002B30D140
:103230003B68002B0AD17A68FB689A4206D8FFF7F0
:10324000F1F9F9687868FFF7A1FF24E03B68002BEB
:1032500008D0134B1B681B68002B01D1012300E031
:1032600000233B600F4B18687A68FB68D31A3A68F2
:103270001946FEF7B3FFFFF7D5F90346002B0AD135
:10328000094B4FF080521A60BFF34F8FBFF36F8F1F
:1032900001E0FFF7C7F900BF1037BD4680BD00BF92
:1032A000F8030020FC03002004ED00E080B485B0AA
:1032B00000AF78600E4B1B681B68002B01D1012208
:1032C00000E000227B681A607B681B68002B05D138
:1032D000074B1B68DB681B68FB6001E00023FB6099
:1032E000FB6818461437BD465DF8047B704700BF85
:1032F000F403002080B584B000AF7860FFF780FA57
:10330000F8600B4B1B68FA689A4205D200F012F97C
:103310007B6801221A6002E07B6800221A60044A7E
:10332000FB681360FB6818461037BD4680BD00BFC0
:103330000404002080B586B000AFF860B9607A6000
:103340003B6000237B61FB68BA685A60FB68FA68DF
:103350001A61BA687B689A4212D87A683B68D21AB6
:10336000FB689B699A4202D301237B611BE0104BEF
:103370001A68FB68043319461046FEF729FC12E070
:103380007A683B689A4206D2BA683B689A4202D38E
:1033900001237B6107E0074B1A68FB680433194679
:1033A0001046FEF715FC7B6918461837BD4680BDF0
:1033B000F8030020F403002080B588B000AFA6E039
:1033C000BB68002BC0F2A2803B69FB61FB695B69B3
:1033D000002B04D0FB6904331846FEF732FC3B1D7A
:1033E0001846FFF787FFB861BB68013B082B00F266
:1033F0008E8001A252F823F01D3400081D3400080D
:103400008534000899340008E33400081D340008AE
:103410001D3400088534000899340008FB6993F8CE
:10342000283043F00103DAB2FB6983F82820FA68F8
:10343000FB699B69D118FB68BA69F869FFF77AFFE5
:103440000346002B63D0FB6993F8283003F0040394
:10345000002B09D0FA68FB699B691344BA691946C5
:10346000F869FFF771FE08E0FB6993F8283023F054
:103470000103DAB2FB6983F82820FB691B6AF8694B
:10348000984744E0FB6993F8283023F00103DAB24F
:10349000FB6983F828203AE0FB6993F8283043F071
:1034A0000103DAB2FB6983F82820FA68FB699A61A4
:1034B000FB699B69002B0AD14FF0500383F31188FD
:1034C000BFF36F8FBFF34F8F7B6100BFFEE7FB69D8
:1034D0009A69BB69D118BB69BA69F869FFF72AFF15
:1034E00015E0FB6993F8283003F00203002B03D1A9
:1034F000F86900F045FB0AE0FB6993F8283023F0F7
:103500000103DAB2FB6983F8282000E000BF084B12
:103510001B6807F1080100221846FEF7AFFC0346BE
:10352000002B7FF44DAF00BF00BF2037BD4680BDEC
:10353000FC03002080B582B000AF09E00E4B1B6891
:10354000DB681B683B604FF0FF313868FFF71EFEF9
:10355000094B1B681B68002BF0D1074B1B687B6075
:10356000064B1B68044A1360044A7B68136000BF63
:103570000837BD4680BD00BFF4030020F8030020DB
:1035800080B500AF00F060F9124B1B68002B1DD115
:103590001148FEF7F0FA1148FEF7EDFA104B0E4A0B
:1035A0001A60104B0D4A1A6000220C210A20FEF707
:1035B000F4FB0346074A1360064B1B68002B05D03B
:1035C000044B1B6808491846FEF7BAFD00F06CF979
:1035D00000BF80BDFC030020CC030020E0030020DE
:1035E000F4030020F8030020144E000880B485B0D6
:1035F00000AFF860B9607A60FB68043BFB60FB6871
:103600004FF080721A60FB68043BFB60BB6823F0DC
:103610000102FB681A60FB68043BFB600C4AFB6814
:103620001A60FB68143BFB607A68FB681A60FB68F1
:10363000043BFB60FB686FF002021A60FB68203BF2
:10364000FB60FB6818461437BD465DF8047B704785
:103650005536000880B485B000AF00237B60124B64
:103660001B68B3F1FF3F0AD04FF0500383F311887A
:10367000BFF36F8FBFF34F8FFB6000BFFEE74FF0CC
:10368000500383F31188BFF36F8FBFF34F8FBB607D
:1036900000BF00BF7B68002BFCD000BF00BF143709
:1036A000BD465DF8047B7047180000200000000054
:1036B000074B19680868B0E8F04F80F30988BFF33A
:1036C0006F8F4FF0000080F311887047AFF30080D8
:1036D000C802002000BF00BF08480068006880F3EF
:1036E00008884FF0000080F3148862B661B6BFF31B
:1036F0004F8FBFF36F8F00DF00BF000008ED00E0C9
:1037000000BF00BF80B586B000AF464B1B68464A7D
:1037100093420AD14FF0500383F31188BFF36F8FA8
:10372000BFF34F8F3B6100BFFEE73E4B1B683F4A34
:1037300093420AD14FF0500383F31188BFF36F8F88
:10374000BFF34F8FFB6000BFFEE7394B7B617B69A6
:103750001B78DBB27B607B69FF221A707B691B7868
:10376000DBB2FB70FB78DBB203F05003DAB2314B13
:103770001A70314B07221A6009E02F4B1B68013B7E
:103780002D4A1360FB78DBB25B00DBB2FB70FB7889
:10379000DBB203F08003802BEFD0274B1B68C3F113
:1037A0000703042B0AD04FF0500383F31188BFF3B3
:1037B0006F8FBFF34F8FBB6000BFFEE71E4B1B68D0
:1037C0001B021D4A13601C4B1B6803F4E0631A4A7A
:1037D00013607B68DAB27B691A70184B1B68174A52
:1037E00043F470031360154B1B68144A43F0704395
:1037F000136000F0DBF8124B00221A6000F0FAF8B8
:10380000104B1B680F4A43F040431360FFF764FFFF
:10381000FFF7FAF8FFF71EFF002318461837BD46DA
:1038200080BD00BF00ED00E071C20F4170C20F41CA
:1038300000E400E0080400200C04002020ED00E07B
:103840001800002034EF00E080B483B000AF4FF0E8
:10385000500383F31188BFF36F8FBFF34F8F7B60EB
:1038600000BF0F4B1B6801330D4A13600C4B1B68E4
:10387000012B0FD10B4B1B68DBB2002B0AD04FF092
:10388000500383F31188BFF36F8FBFF34F8F3B60FB
:1038900000BFFEE700BF0C37BD465DF8047B7047F4
:1038A0001800002004ED00E080B483B000AF124B9C
:1038B0001B68002B0AD14FF0500383F31188BFF32C
:1038C0006F8FBFF34F8F7B6000BFFEE70A4B1B6813
:1038D000013B094A1360084B1B68002B05D10023EC
:1038E0003B603B6883F3118800BF00BF0C37BD46C7
:1038F0005DF8047B704700BF180000200000000046
:10390000EFF30980BFF36F8F154B1A681EF0100F8D
:1039100008BF20ED108A20E9F04F10602DE9090062
:103920004FF0500080F31188BFF34F8FBFF36F8FBC
:10393000FFF76AF84FF0000080F3118809BC19689E
:103940000868B0E8F04F1EF0100F08BFB0EC108A06
:1039500080F30988BFF36F8F704700BFAFF300801B
:10396000C802002000BF00BF80B582B000AF4FF09A
:10397000500383F31188BFF36F8FBFF34F8F7B60CA
:1039800000BFFEF74DFF0346002B03D0064B4FF060
:1039900080521A6000233B603B6883F3118800BFAC
:1039A00000BF0837BD4680BD04ED00E080B400AF25
:1039B0000B4B00221A600B4B00221A600A4B1B684B
:1039C0000A4AA2FB03239B09094A013B1360044BEB
:1039D00007221A6000BFBD465DF8047B704700BF38
:1039E00010E000E018E000E000000020D34D62107D
:1039F00014E000E0DFF80C00016841F470010160A0
:103A00007047000088ED00E000BF00BF80B58AB0BD
:103A100000AF78600023FB61FEF7F6FD534B1B6897
:103A2000002B01D100F008F97B68002B12D008228E
:103A30007B6803F00703D31A0833BB61BB69DB4320
:103A40007A689A4204D87A68BB6913447B6001E0C3
:103A500000237B607B68002B70DB7B68002B6DD0C4
:103A6000434B1B687A689A4268D8424B3B62414B91
:103A70001B687B6204E07B6A3B627B6A1B687B623B
:103A80007B6A5B687A689A4203D97B6A1B68002B61
:103A9000F1D1364B1B687A6A9A424FD03B6A1B6859
:103AA00008221344FB617B6A1A683B6A1A607B6ACE
:103AB0005A687B68D21A08235B009A421FD97A6A37
:103AC0007B6813447B617B6903F00703002B0AD0FA
:103AD0004FF0500383F31188BFF36F8FBFF34F8F05
:103AE0003B6100BFFEE77B6A5A687B68D21A7B693C
:103AF0005A607B6A7A685A60786900F0F9F81C4B62
:103B00001A687B6A5B68D31A194A1360184B1A68E3
:103B1000194B1B689A4203D2154B1B68164A136057
:103B20007B6A5B6843F000427B6A5A607B6A0022D2
:103B30001A60124B1B680133104A1360FEF772FDC6
:103B4000FB6903F00703002B0AD04FF0500383F307
:103B50001188BFF36F8FBFF34F8FFB6000BFFEE78D
:103B6000FB6918462837BD4680BD00BF18300120CC
:103B70001C30012010300120203001202430012091
:103B800080B586B000AF78607B687B617B68002B76
:103B900049D008235B427A6913447B617B693B61AE
:103BA0003B695B68002B0ADB4FF0500383F31188FD
:103BB000BFF36F8FBFF34F8FFB6000BFFEE73B6922
:103BC0001B68002B0AD04FF0500383F31188BFF31A
:103BD0006F8FBFF34F8FBB6000BFFEE73B695B6831
:103BE000DB0F03F00103DBB2002B1CD03B691B6829
:103BF000002B18D13B695B6823F000423B695A6097
:103C0000FEF702FD3B695A68094B1B681344084ADA
:103C10001360386900F06CF8064B1B680133054AE5
:103C20001360FEF7FFFC00BF1837BD4680BD00BF24
:103C30001C3001202830012080B485B000AF4FF443
:103C40009633BB60254BFB60FB6803F00703002B3A
:103C50000CD0FB680733FB60FB6823F00703FB60B5
:103C6000BA68FB68D31A1D4A1344BB60FB687B60CB
:103C70001B4A7B6813601A4B00225A607B68BA6843
:103C80001344FB600822FB689B1AFB60FB6823F06F
:103C90000703FB60FB68134A1360124B1B6800228A
:103CA0005A60104B1B6800221A607B683B603B68BF
:103CB000FA68D21A3B685A600A4B1A683B681A6065
:103CC0003B685B68084A13603B685B68074A13609F
:103CD00000BF1437BD465DF8047B70471004002018
:103CE0001030012018300120203001201C3001202C
:103CF00080B485B000AF7860284BFB6002E0FB68C1
:103D00001B68FB60FB681B687A689A42F7D8FB68FF
:103D1000BB60FB685B68BA6813447A689A4208D152
:103D2000FB685A687B685B681A44FB685A60FB68EA
:103D30007B607B68BB607B685B68BA681A44FB6821
:103D40001B689A4218D1FB681A68154B1B689A4287
:103D50000DD07B685A68FB681B685B681A447B68F7
:103D60005A60FB681B681A687B681A6008E00C4B95
:103D70001A687B681A6003E0FB681A687B681A603F
:103D8000FA687B689A4202D0FB687A681A6000BFC2
:103D90001437BD465DF8047B704700BF103001202A
:103DA0001830012080B58AB000AF00237B62002369
:103DB00087F8233000233B840023FB83012101206B
:103DC000FDF756FB01214FF40030FDF731FB0423D2
:103DD0007B6102233B760023BB760023FB76022324
:103DE0007B76072202212948FDF7DFF9072203210C
:103DF0002648FDF7DAF907F1140319462348FDF7C1
:103E000027F908237B6107F1140319461F48FDF7C2
:103E10001FF94FF416437B6000233B8100237B8115
:103E20000023BB8100233B820C23FB813B1D1946F1
:103E30001748FDF72FFD012240F225511448FDF7E8
:103E400025FE002240F227711148FDF71FFE402198
:103E50000F48FDF77FFE01210D48FDF7D5FD262314
:103E60003B7000237B700123FB703B461846FCF738
:103E700013FE20210648FDF76DFE01210448FDF7E1
:103E8000C3FD00BF2837BD4680BD00BF0000024013
:103E90000044004080B584B000AF03463A60FB7137
:103EA0000B46BB710023FB730023FB7313E000BFC1
:103EB00040210D48FDF732FE0346002BF8D0FB7B76
:103EC0003A6813441B789BB219460748FDF7BCFDBE
:103ED000FB7B0133FB73FA7BBB799A42E7D300BFCC
:103EE00000BF1037BD4680BD0044004080B584B09F
:103EF00000AF786039600023BB731C4B1B88002B1C
:103F000030D00023FB730AE0FB7B194AD35C0D2BF6
:103F100002D10123BB7308E0FB7B0133FB73FB7B06
:103F20009AB2124B1B889A42EED9BB7B012B19D156
:103F30003B68FA7B1A703B681B781A460C49786814
:103F400000F026FF0023FB7306E0FB7B084A0021FC
:103F5000D154FB7B0133FB73FB7BC72BF5D9034BA0
:103F600000221A8000BF1037BD4680BD2C300120D2
:103F70003030012080B485B000AF78600023FB733F
:103F80000023BB737B681B78303BFB73FB7B0A2BE6
:103F900002D9FB7B073BFB737B6801331B78303B0B
:103FA000BB73BB7B0A2B02D9BB7B073BBB73FB7B81
:103FB0001B015AB297F90E3013435BB2FB73FB7BC4
:103FC00018461437BD465DF8047B704780B485B051
:103FD00000AF78600B46FB700023FB730023BB73BC
:103FE000FB781B09FB73FB7803F00F03BB73FB7BB0
:103FF000092B05D8FB7B3033DAB27B681A7004E0FA
:10400000FB7B3733DAB27B681A70BB7B092B06D88F
:104010007B680133BA7B3032D2B21A7005E07B681C
:104020000133BA7B3732D2B21A707B680233202256
:104030001A7000BF1437BD465DF8047B704700005E
:1040400080B588B000AF03463A60FB800B467B71B9
:104050000023FB770023BB77FB88BB6000237B74C6
:1040600000233B747B79BB743B681B78FB743B6813
:104070005B783B753B689B787B753B68DB78BB75F1
:104080003B681B79FB753B685B793B763B689B79AA
:104090007B763B68DB79BB7607F108031946144849
:1040A000FCF75CFD0346BB7705E00320FEF726FA2C
:1040B000FB7F0133FB77BB7F19460D48FCF720FEE1
:1040C0000346012B02D0FB7F632BEED9FB7F642BD1
:1040D00006D1BB7F19460648FCF796FE002303E095
:1040E000044B00221A70012318462037BD4680BDBC
:1040F000006400400031012080B584B000AF7860DA
:1041000039600023FB730023BB7305E02820FEF712
:10411000F5F9FB7B0133FB73164B1B78002B02D1A7
:10412000FB7B632BF2D9FB7B642B01D100231DE0C9
:10413000114B5B78412B18D10123BB730AE0BA7B8A
:10414000BB7B013B39680B440B498A5C1A70BB7B13
:104150000133BB73084B1B78BA7B9A42EFD9064BED
:104160001A787B681A70012300E000231846103784
:10417000BD4680BD00310120F830012080B584B0FB
:1041800000AF786039600023BB600023FB60FCF760
:10419000F9FA03461A46584B1B781946574B1B78B9
:1041A00003F00F03043399420CBF01230023DBB259
:1041B0001340002B2CD0514B1B7803F00F03DAB2C5
:1041C0003B681A700023FB600AE0FB68DA1CFB689E
:1041D00079680B4449498A5C1A70FB680133FB60BB
:1041E0003B681B781A46FB689342EEDB0023FB60BA
:1041F00007E0424AFB68134400221A70FB6801334F
:10420000FB60FB68F92BF4DD3B4B00221A7067E082
:10421000FCF7B8FA03461946384B1B78802B0CBFC5
:1042200001230023DAB2354BDB781846324B1B787A
:10423000053B98420CBF01230023DBB21343DBB2E2
:104240000B40002B29D02D4BDA783B681A700023E5
:10425000FB600AE0FB681A1DFB6879680B4427497C
:104260008A5C1A70FB680133FB603B681B781A4656
:10427000FB689342EEDB0023FB6007E01F4AFB680C
:10428000134400221A70FB680133FB60FB68F92BB2
:10429000F4DD194B00221A7022E0FCF773FA034692
:1042A000002B1AD0144B1B78002B16D0134B1B7805
:1042B0005BB2002B11DB0023FB6007E00F4AFB68B9
:1042C000134400221A70FB680133FB60FB680E2B5D
:1042D000F4DD094B00221A7002E03B6800221A70DC
:1042E000054B1B78142B02D93B6800221A7000BFC3
:1042F0001037BD4680BD00BF0232012008310120C9
:1043000080B584B000AF78600B46FB700023FB6083
:104310000023FB72494B00221A7000BFFCF732FAEF
:104320000346002BFAD000BF40214548FDF7F6FBBD
:104330000346002BF8D0FB789BB2C0339BB21946E2
:104340003F48FDF781FBFB78403BFB7200BF4021FB
:104350003B48FDF7E3FB0346002BF8D033213848F8
:10436000FDF772FBFB7A3333FB7200BF4021344808
:10437000FDF7D4FB0346002BF8D0F1213048FDF7C0
:1043800063FBFB7A0F3BFB720023FB601AE000BF6C
:1043900040212B48FDF7C2FB0346002BF8D0FB68F9
:1043A0007A6813441B789BB219462548FDF74CFBED
:1043B000FB687A6813441A78FB7A1344FB72FB6833
:1043C0000133FB60FB78FA689A42E0DB00BF4021D2
:1043D0001B48FDF7A3FB0346002BF8D0FB7A9BB2EA
:1043E00019461748FDF730FB00BF40211448FDF780
:1043F00095FB0346002BF8D00023FB6007E0114A31
:10440000FB68134400221A70FB680133FB60FB68F1
:10441000F92BF4DD00BFFCF7B5F90346002BFAD009
:10442000064B01221A704FF47A60FCF76FF9064BC5
:1044300000221A7000BF1037BD4680BD0332012034
:1044400000100140083101200232012080B588B0FF
:1044500000AF0023FB8301210120FDF709F84FF491
:1044600000718B48FCF783FE4FF400737B610123DE
:104470003B760023BB760023FB7602237B7607F195
:10448000140319468248FCF7E3FD01210120FCF7E3
:10449000CFFF4FF08040FDF74BF84FF47A73FB608D
:1044A00023233B8100233B8200237B8107F1080308
:1044B00019464FF08040FDF71BF901214FF0804075
:1044C000FDF7C6F9012201214FF08040FDF79CF96C
:1044D00001214FF08040FDF777F94FF4E060FCF7E1
:1044E000C7FA1C233B7100237B710023BB7101239E
:1044F000FB713B1D1846FCF7CFFA00BF654B1B88CC
:10450000B3F5167FFAD14FF400716148FCF73EFE17
:104510004FF400516048FCF72AFE00BF5D4B1B883A
:10452000B3F57A7FFAD14FF400715948FCF71FFEBA
:104530004FF400515848FCF729FE00BF554B1B882B
:10454000B3F5E16FFAD14FF400715148FCF71EFE4C
:104550004FF400515048FCF70AFE00BF4D4B1B883A
:1045600040F628229342F9D14FF400714848FCF7F5
:10457000FEFD4FF400514848FCF708FE00BF454BD4
:104580001B8840F648529342F9D14FF400714048DD
:10459000FCF7FCFD4FF400513F48FCF7E8FD00BF7D
:1045A0003C4B1B8841F268029342F9D14FF40071F1
:1045B0003748FCF7DCFD4FF400513748FCF7E6FDC7
:1045C000364B00221A704FF400737B6102233B7656
:1045D00002237B7607F1140319462D48FCF738FDBA
:1045E0002F4B01221A7000BF2C4B1B78012B05D8D2
:1045F000284B1B8841F20F329342F5D9274B1B7889
:10460000022B39D1234B1B88FB83254B00221A70C8
:1046100000BF204B1B881A46FB8B50339A42F8D1BF
:1046200000BF40211F48FDF779FA0346002BF8D060
:1046300070211C48FDF708FA00BF164B1B881A466C
:10464000FB8BA0339A42F8D100BF40211548FDF7FB
:1046500065FA0346002BF8D0CC211248FDF7F4F997
:1046600000BF0C4B1B881A46FB8B03F53E739A4226
:10467000F7D10A4B00221A704FF08040FCF758FF28
:10468000044B00221A8000BF2037BD4680BD00BF0A
:1046900000000240023101200008024002320120E5
:1046A000033201200010014080B588B000AF002324
:1046B000FB8301210120FCF7DBFE4FF400714F4822
:1046C000FCF755FD4FF400737B6101233B7600231B
:1046D000BB760023FB7602237B7607F11403194691
:1046E0004648FCF7B5FC4FF400514548FCF74EFD39
:1046F00001210120FCF79CFE4FF08040FCF718FFE1
:104700004FF47A73FB6023233B8100233B82002319
:104710007B8107F1080319464FF08040FCF7E8FF62
:1047200001214FF08040FDF793F8012201214FF065
:104730008040FDF769F801214FF08040FDF744F813
:104740004FF4E060FCF794F91C233B7100237B716C
:104750000023BB710123FB713B1D1846FCF79CF93C
:1047600000BF284B1B88B3F5167FFAD14FF40071B8
:104770002248FCF70BFD4FF400512148FCF7F7FCF1
:1047800000BF204B1B8840F28A229342F9D14FF49C
:1047900000711A48FCF7EBFC4FF400511848FCF785
:1047A000F5FC00BF174B1B88B3F52F7FFAD14FF4F0
:1047B00000511348FCF7EAFC4FF400737B610223BD
:1047C0003B760023BB760023FB7602237B76072211
:1047D00009210A48FCF7E9FC07F1140319460748C8
:1047E000FCF736FC4FF08040FCF7A2FE054B0022A0
:1047F0001A8000BF2037BD4680BD00BF00000240C8
:10480000000802400231012080B58AB000AF0023C9
:1048100087F8253040F601433B840023FB61524A70
:1048200007F1140392E8030083E803004F4A07F1FD
:104830000C0392E8030083E803004D4A3B1D92E815
:10484000030083E80300002387F82730002387F85C
:1048500026307FE041F28830FDF750FE454B1B7853
:10486000012B6BD1FFF720FF812387F82030002335
:1048700087F8213007F1250307F11C0207F120001A
:10488000012100F07BF897F82530032B06D1012396
:1048900087F82630384B02221A7061E04FF47A70A4
:1048A000FDF72CFEFFF7D2FD012387F820300C2303
:1048B00087F8213007F1250307F11C0207F12000DA
:1048C000022100F05BF897F82530042B06D1012374
:1048D00087F82630284B02221A7041E007F11403B2
:1048E0001A46082140F2DF70FFF7AAFB0346002BAF
:1048F0001FD04FF47A70FDF701FE07F10C031A4642
:10490000082140F2DF70FFF79BFB0346002B10D01D
:104910003A1D07F1250311461846FFF7EDFB034644
:10492000002B06D0012387F82630134B01221A7082
:1049300016E097F82730013387F8273097F82730AB
:10494000012B07D90B4B00221A7000F0A7F90023A6
:1049500087F8273097F82630002B3FF47BAF00BF55
:1049600000BF2837BD4680BD1C4E0008244E0008FD
:104970002C4E0008043101200131012090B587B090
:1049800000AFF8607A603B600B46FB7200237B61EE
:10499000FB7A1946F868FFF7B3FC05E00120FDF744
:1049A000ADFD7B6901337B611A4B1B78002B0CBF7B
:1049B00001230023DAB27B6941F287318B4294BF35
:1049C00001230023DBB21340DBB21C46FBF7DAFE07
:1049D0000346002B0CBF01230023DBB22343002B33
:1049E000DCD17B690C4A934201D103230DE00B4BD0
:1049F00000221A7039687868FFF7C0FB7B681B7863
:104A00007F2B01D1002300E0012318461C37BD464F
:104A100090BD00BF02320120FFFF2F0004320120B1
:104A200090B589B000AFF8607A603B600B46FB72CE
:104A30000023FB614C4A07F1100392E8030083E86E
:104A400003000023FB76494B1B78022B44D1FB7AF1
:104A50001946F868FFF754FC05E00120FDF74EFD0C
:104A6000FB690133FB61424B1B78002B0CBF012318
:104A70000023DAB2FB693F498B4294BF0123002334
:104A8000DBB21340DBB21C46FBF77CFE0346002B77
:104A90000CBF01230023DBB22343002BDDD1FB69D4
:104AA000354A934210D1354B1B780133DAB2334B80
:104AB0001A70324B1B780A2B04D9314B00221A7022
:104AC000FFF7A2FE03234BE02C4B00221A7039683B
:104AD0007868FFF753FB3CE0244B1B78012B38D15F
:104AE000FB7A3B740123FB760CE0FB7E013BFA680A
:104AF0001A44FB7E127820333B4403F8102CFB7ED3
:104B00000133FB76FA7EFB7A01339A42EDDD07F141
:104B100010031A46082140F2DF70FFF791FA0346AE
:104B2000002B07D079683868FFF7E6FA134B0022AC
:104B30001A700EE0114B1B780133DAB20F4B1A706A
:104B40000E4B1B780F2B04D90D4B00221A70FFF768
:104B50005BFE7B681B787F2B01D1002300E00123E3
:104B600018462437BD4690BD2C4E00080131012067
:104B700002320120FEFF2F00FFFF2F00053201202F
:104B80000431012080B588B000AF01211120FCF76D
:104B90006FFC01210420FCF76BFC4FF400513C48F2
:104BA000FCF7E5FA4FF400537B6101233B760023C9
:104BB000BB760023FB7602237B7607F114031946AC
:104BC0003348FCF745FA4FF400737B6102233B76D0
:104BD0000023BB760023FB7602237B760722092184
:104BE0002C48FCF7E2FA07220A212A48FCF7DDFAF2
:104BF00007F1140319462748FCF72AFA4FF480639B
:104C00007B6107F1140319462248FCF721FA42F6AA
:104C1000A0037B6000233B8100237B810023BB81B9
:104C200000233B820C23FB813B1D19461A48FCF7ED
:104C300031FE012240F225511748FCF727FF0022E0
:104C400040F227711448FCF721FF40211248FCF77D
:104C500081FF01211048FCF7D7FE25233B77002375
:104C60007B770123FB7707F11C031846FBF714FF42
:104C700020210948FCF76EFF40210748FCF76AFF36
:104C800001210548FCF7C0FE00BF2037BD4680BDAE
:104C900000080240000002400010014080B584B0CE
:104CA00000AF0023FB8101210120FCF7E1FB4FF461
:104CB00000737B6001233B720023BB720023FB72F5
:104CC00002237B723B1D19460848FCF7C1F94FF4DB
:104CD00000710648FCF74BFA4FF400510448FCF70A
:104CE00055FA00BF1037BD4680BD00BF000002402E
:104CF00000080240DFF834D0002103E00C4B5B5881
:104D0000435004310B480C4B42189A42F6D30B4ADD
:104D100002E0002342F8043B094B9A42F9D3FBF727
:104D2000F5FD00F011F8FBF76BFC70470000022066
:104D30003C4E000800000020200000202000002041
:104D400008320120FEE7000070B50D4D0D4C641BCC
:104D5000A4100026A64209D10B4D0C4C00F02EF8F1
:104D6000641BA4100026A64205D170BD55F8043B73
:104D700098470136EEE755F8043B98470136F2E7CD
:104D8000344E0008344E0008344E0008384E0008F7
:104D90000A44914200F1FF3300D1704710B511F879
:104DA000014B03F8014F9142F9D110BD0244034673
:104DB000934200D1704703F8011BF9E7F8B500BF33
:104DC000F8BC08BC9E467047F8B500BFF8BC08BCEC
:044DD0009E46704744
:104DD4000D0D454C4D3332372076322E310D0D3EBC
:104DE400000000004E4F20444154410D0D3E000090
:104DF4006E6F6E65000000004F4B0D0D3E0000000D
:104E040049444C4500000000546D72205376630001
:104E1400546D725100000000020100000000000007
:104E24000201460000000000000000000000000035
:044E3400B5010008BC
:044E380091010008DC
:104E3C00007A030A000000000102030401020304CB
:104E4C000607080904000000AAAAAAAA010000008B
:0400000508004CF5AE
:00000001FF
